{
  "_format": "hh-sol-artifact-1",
  "contractName": "WOAS",
  "sourceName": "contracts/token/WOAS.sol",
  "abi": [
    {
      "inputs": [],
      "stateMutability": "nonpayable",
      "type": "constructor"
    },
    {
      "anonymous": false,
      "inputs": [
        {
          "indexed": true,
          "internalType": "address",
          "name": "owner",
          "type": "address"
        },
        {
          "indexed": true,
          "internalType": "address",
          "name": "spender",
          "type": "address"
        },
        {
          "indexed": false,
          "internalType": "uint256",
          "name": "value",
          "type": "uint256"
        }
      ],
      "name": "Approval",
      "type": "event"
    },
    {
      "anonymous": false,
      "inputs": [
        {
          "indexed": true,
          "internalType": "address",
          "name": "sender",
          "type": "address"
        },
        {
          "indexed": false,
          "internalType": "uint256",
          "name": "amount",
          "type": "uint256"
        }
      ],
      "name": "Deposit",
      "type": "event"
    },
    {
      "anonymous": false,
      "inputs": [
        {
          "indexed": true,
          "internalType": "address",
          "name": "from",
          "type": "address"
        },
        {
          "indexed": true,
          "internalType": "address",
          "name": "to",
          "type": "address"
        },
        {
          "indexed": false,
          "internalType": "uint256",
          "name": "value",
          "type": "uint256"
        }
      ],
      "name": "Transfer",
      "type": "event"
    },
    {
      "anonymous": false,
      "inputs": [
        {
          "indexed": true,
          "internalType": "address",
          "name": "recipient",
          "type": "address"
        },
        {
          "indexed": false,
          "internalType": "uint256",
          "name": "amount",
          "type": "uint256"
        }
      ],
      "name": "Withdrawal",
      "type": "event"
    },
    {
      "inputs": [
        {
          "internalType": "address",
          "name": "owner",
          "type": "address"
        },
        {
          "internalType": "address",
          "name": "spender",
          "type": "address"
        }
      ],
      "name": "allowance",
      "outputs": [
        {
          "internalType": "uint256",
          "name": "",
          "type": "uint256"
        }
      ],
      "stateMutability": "view",
      "type": "function"
    },
    {
      "inputs": [
        {
          "internalType": "address",
          "name": "spender",
          "type": "address"
        },
        {
          "internalType": "uint256",
          "name": "amount",
          "type": "uint256"
        }
      ],
      "name": "approve",
      "outputs": [
        {
          "internalType": "bool",
          "name": "",
          "type": "bool"
        }
      ],
      "stateMutability": "nonpayable",
      "type": "function"
    },
    {
      "inputs": [
        {
          "internalType": "address",
          "name": "account",
          "type": "address"
        }
      ],
      "name": "balanceOf",
      "outputs": [
        {
          "internalType": "uint256",
          "name": "",
          "type": "uint256"
        }
      ],
      "stateMutability": "view",
      "type": "function"
    },
    {
      "inputs": [],
      "name": "decimals",
      "outputs": [
        {
          "internalType": "uint8",
          "name": "",
          "type": "uint8"
        }
      ],
      "stateMutability": "view",
      "type": "function"
    },
    {
      "inputs": [
        {
          "internalType": "address",
          "name": "spender",
          "type": "address"
        },
        {
          "internalType": "uint256",
          "name": "subtractedValue",
          "type": "uint256"
        }
      ],
      "name": "decreaseAllowance",
      "outputs": [
        {
          "internalType": "bool",
          "name": "",
          "type": "bool"
        }
      ],
      "stateMutability": "nonpayable",
      "type": "function"
    },
    {
      "inputs": [],
      "name": "deposit",
      "outputs": [],
      "stateMutability": "payable",
      "type": "function"
    },
    {
      "inputs": [
        {
          "internalType": "address",
          "name": "spender",
          "type": "address"
        },
        {
          "internalType": "uint256",
          "name": "addedValue",
          "type": "uint256"
        }
      ],
      "name": "increaseAllowance",
      "outputs": [
        {
          "internalType": "bool",
          "name": "",
          "type": "bool"
        }
      ],
      "stateMutability": "nonpayable",
      "type": "function"
    },
    {
      "inputs": [],
      "name": "name",
      "outputs": [
        {
          "internalType": "string",
          "name": "",
          "type": "string"
        }
      ],
      "stateMutability": "view",
      "type": "function"
    },
    {
      "inputs": [],
      "name": "symbol",
      "outputs": [
        {
          "internalType": "string",
          "name": "",
          "type": "string"
        }
      ],
      "stateMutability": "view",
      "type": "function"
    },
    {
      "inputs": [],
      "name": "totalSupply",
      "outputs": [
        {
          "internalType": "uint256",
          "name": "",
          "type": "uint256"
        }
      ],
      "stateMutability": "view",
      "type": "function"
    },
    {
      "inputs": [
        {
          "internalType": "address",
          "name": "to",
          "type": "address"
        },
        {
          "internalType": "uint256",
          "name": "amount",
          "type": "uint256"
        }
      ],
      "name": "transfer",
      "outputs": [
        {
          "internalType": "bool",
          "name": "",
          "type": "bool"
        }
      ],
      "stateMutability": "nonpayable",
      "type": "function"
    },
    {
      "inputs": [
        {
          "internalType": "address",
          "name": "from",
          "type": "address"
        },
        {
          "internalType": "address",
          "name": "to",
          "type": "address"
        },
        {
          "internalType": "uint256",
          "name": "amount",
          "type": "uint256"
        }
      ],
      "name": "transferFrom",
      "outputs": [
        {
          "internalType": "bool",
          "name": "",
          "type": "bool"
        }
      ],
      "stateMutability": "nonpayable",
      "type": "function"
    },
    {
      "inputs": [
        {
          "internalType": "uint256",
          "name": "amount",
          "type": "uint256"
        },
        {
          "internalType": "address",
          "name": "recipient",
          "type": "address"
        }
      ],
      "name": "withdraw",
      "outputs": [],
      "stateMutability": "nonpayable",
      "type": "function"
    },
    {
      "inputs": [
        {
          "internalType": "uint256",
          "name": "amount",
          "type": "uint256"
        }
      ],
      "name": "withdraw",
      "outputs": [],
      "stateMutability": "nonpayable",
      "type": "function"
    }
  ],
  "bytecode": "0x60806040523480156200001157600080fd5b50604080518082018252600b81526a57726170706564204f415360a81b602080830191825283518085019094526004845263574f415360e01b908401528151919291620000619160039162000080565b5080516200007790600490602084019062000080565b50505062000163565b8280546200008e9062000126565b90600052602060002090601f016020900481019282620000b25760008555620000fd565b82601f10620000cd57805160ff1916838001178555620000fd565b82800160010185558215620000fd579182015b82811115620000fd578251825591602001919060010190620000e0565b506200010b9291506200010f565b5090565b5b808211156200010b576000815560010162000110565b600181811c908216806200013b57607f821691505b602082108114156200015d57634e487b7160e01b600052602260045260246000fd5b50919050565b610e7380620001736000396000f3fe6080604052600436106100dc5760003560e01c8063395093511161007f578063a457c2d711610059578063a457c2d714610244578063a9059cbb14610264578063d0e30db014610284578063dd62ed3e1461028c57600080fd5b806339509351146101d957806370a08231146101f957806395d89b411461022f57600080fd5b806318160ddd116100bb57806318160ddd1461015e57806323b872dd1461017d5780632e1a7d4d1461019d578063313ce567146101bd57600080fd5b8062f714ce146100e157806306fdde0314610103578063095ea7b31461012e575b600080fd5b3480156100ed57600080fd5b506101016100fc366004610c71565b6102d2565b005b34801561010f57600080fd5b506101186102e0565b6040516101259190610c9d565b60405180910390f35b34801561013a57600080fd5b5061014e610149366004610cf2565b610372565b6040519015158152602001610125565b34801561016a57600080fd5b506002545b604051908152602001610125565b34801561018957600080fd5b5061014e610198366004610d1c565b61038a565b3480156101a957600080fd5b506101016101b8366004610d58565b6103ae565b3480156101c957600080fd5b5060405160128152602001610125565b3480156101e557600080fd5b5061014e6101f4366004610cf2565b6103bb565b34801561020557600080fd5b5061016f610214366004610d71565b6001600160a01b031660009081526020819052604090205490565b34801561023b57600080fd5b506101186103fa565b34801561025057600080fd5b5061014e61025f366004610cf2565b610409565b34801561027057600080fd5b5061014e61027f366004610cf2565b6104a0565b6101016104ae565b34801561029857600080fd5b5061016f6102a7366004610d93565b6001600160a01b03918216600090815260016020908152604080832093909416825291909152205490565b6102dc8282610530565b5050565b6060600380546102ef90610dbd565b80601f016020809104026020016040519081016040528092919081815260200182805461031b90610dbd565b80156103685780601f1061033d57610100808354040283529160200191610368565b820191906000526020600020905b81548152906001019060200180831161034b57829003601f168201915b5050505050905090565b6000336103808185856106ab565b5060019392505050565b6000336103988582856107d0565b6103a3858585610862565b506001949350505050565b6103b88133610530565b50565b3360008181526001602090815260408083206001600160a01b038716845290915281205490919061038090829086906103f5908790610e0e565b6106ab565b6060600480546102ef90610dbd565b3360008181526001602090815260408083206001600160a01b0387168452909152812054909190838110156104935760405162461bcd60e51b815260206004820152602560248201527f45524332303a2064656372656173656420616c6c6f77616e63652062656c6f77604482015264207a65726f60d81b60648201526084015b60405180910390fd5b6103a382868684036106ab565b600033610380818585610862565b600034116104ef5760405162461bcd60e51b815260206004820152600e60248201526d3b30b63ab29034b9903d32b9379760911b604482015260640161048a565b6104f93334610a30565b60405134815233907fe1fffcc4923d04b559f4d29a8bfc6cda04eb5b0d3c460751c2402c5c5cc9109c9060200160405180910390a2565b600082116105725760405162461bcd60e51b815260206004820152600f60248201526e30b6b7bab73a1034b9903d32b9379760891b604482015260640161048a565b336000908152602081905260409020548211156105bf5760405162461bcd60e51b815260206004820152600b60248201526a1bdd995c88185b5bdd5b9d60aa1b604482015260640161048a565b6105c93383610b0f565b6000816001600160a01b03168360405160006040518083038185875af1925050503d8060008114610616576040519150601f19603f3d011682016040523d82523d6000602084013e61061b565b606091505b50509050806106635760405162461bcd60e51b815260206004820152601460248201527327a0a9903a3930b739b332b9103330b4b632b21760611b604482015260640161048a565b816001600160a01b03167f7fcf532c15f0a6db0bd6d0e038bea71d30d808c7d98cb3bf7268a95bf5081b658460405161069e91815260200190565b60405180910390a2505050565b6001600160a01b03831661070d5760405162461bcd60e51b8152602060048201526024808201527f45524332303a20617070726f76652066726f6d20746865207a65726f206164646044820152637265737360e01b606482015260840161048a565b6001600160a01b03821661076e5760405162461bcd60e51b815260206004820152602260248201527f45524332303a20617070726f766520746f20746865207a65726f206164647265604482015261737360f01b606482015260840161048a565b6001600160a01b0383811660008181526001602090815260408083209487168084529482529182902085905590518481527f8c5be1e5ebec7d5bd14f71427d1e84f3dd0314c0f7b2291e5b200ac8c7c3b92591015b60405180910390a3505050565b6001600160a01b03838116600090815260016020908152604080832093861683529290522054600019811461085c578181101561084f5760405162461bcd60e51b815260206004820152601d60248201527f45524332303a20696e73756666696369656e7420616c6c6f77616e6365000000604482015260640161048a565b61085c84848484036106ab565b50505050565b6001600160a01b0383166108c65760405162461bcd60e51b815260206004820152602560248201527f45524332303a207472616e736665722066726f6d20746865207a65726f206164604482015264647265737360d81b606482015260840161048a565b6001600160a01b0382166109285760405162461bcd60e51b815260206004820152602360248201527f45524332303a207472616e7366657220746f20746865207a65726f206164647260448201526265737360e81b606482015260840161048a565b6001600160a01b038316600090815260208190526040902054818110156109a05760405162461bcd60e51b815260206004820152602660248201527f45524332303a207472616e7366657220616d6f756e7420657863656564732062604482015265616c616e636560d01b606482015260840161048a565b6001600160a01b038085166000908152602081905260408082208585039055918516815290812080548492906109d7908490610e0e565b92505081905550826001600160a01b0316846001600160a01b03167fddf252ad1be2c89b69c2b068fc378daa952ba7f163c4a11628f55a4df523b3ef84604051610a2391815260200190565b60405180910390a361085c565b6001600160a01b038216610a865760405162461bcd60e51b815260206004820152601f60248201527f45524332303a206d696e7420746f20746865207a65726f206164647265737300604482015260640161048a565b8060026000828254610a989190610e0e565b90915550506001600160a01b03821660009081526020819052604081208054839290610ac5908490610e0e565b90915550506040518181526001600160a01b038316906000907fddf252ad1be2c89b69c2b068fc378daa952ba7f163c4a11628f55a4df523b3ef9060200160405180910390a35050565b6001600160a01b038216610b6f5760405162461bcd60e51b815260206004820152602160248201527f45524332303a206275726e2066726f6d20746865207a65726f206164647265736044820152607360f81b606482015260840161048a565b6001600160a01b03821660009081526020819052604090205481811015610be35760405162461bcd60e51b815260206004820152602260248201527f45524332303a206275726e20616d6f756e7420657863656564732062616c616e604482015261636560f01b606482015260840161048a565b6001600160a01b0383166000908152602081905260408120838303905560028054849290610c12908490610e26565b90915550506040518281526000906001600160a01b038516907fddf252ad1be2c89b69c2b068fc378daa952ba7f163c4a11628f55a4df523b3ef906020016107c3565b80356001600160a01b0381168114610c6c57600080fd5b919050565b60008060408385031215610c8457600080fd5b82359150610c9460208401610c55565b90509250929050565b600060208083528351808285015260005b81811015610cca57858101830151858201604001528201610cae565b81811115610cdc576000604083870101525b50601f01601f1916929092016040019392505050565b60008060408385031215610d0557600080fd5b610d0e83610c55565b946020939093013593505050565b600080600060608486031215610d3157600080fd5b610d3a84610c55565b9250610d4860208501610c55565b9150604084013590509250925092565b600060208284031215610d6a57600080fd5b5035919050565b600060208284031215610d8357600080fd5b610d8c82610c55565b9392505050565b60008060408385031215610da657600080fd5b610daf83610c55565b9150610c9460208401610c55565b600181811c90821680610dd157607f821691505b60208210811415610df257634e487b7160e01b600052602260045260246000fd5b50919050565b634e487b7160e01b600052601160045260246000fd5b60008219821115610e2157610e21610df8565b500190565b600082821015610e3857610e38610df8565b50039056fea26469706673582212201386e735025cbb0cf1805fd55167774354486301f58ae37b970d23e4b244557864736f6c634300080c0033",
  "linkReferences": {},
  "deployedLinkReferences": {}
}