{
  "_format": "hh-sol-artifact-1",
  "contractName": "SOAS",
  "sourceName": "contracts/token/SOAS.sol",
  "abi": [
    {
      "inputs": [
        {
          "internalType": "address[]",
          "name": "_allowedAddresses",
          "type": "address[]"
        }
      ],
      "stateMutability": "nonpayable",
      "type": "constructor"
    },
    {
      "inputs": [],
      "name": "AlreadyClaimer",
      "type": "error"
    },
    {
      "inputs": [],
      "name": "InvalidClaimPeriod",
      "type": "error"
    },
    {
      "inputs": [],
      "name": "InvalidDestination",
      "type": "error"
    },
    {
      "inputs": [],
      "name": "InvalidMinter",
      "type": "error"
    },
    {
      "inputs": [],
      "name": "NoAmount",
      "type": "error"
    },
    {
      "inputs": [],
      "name": "OverAmount",
      "type": "error"
    },
    {
      "inputs": [],
      "name": "TransferFailed",
      "type": "error"
    },
    {
      "inputs": [],
      "name": "UnauthorizedTransfer",
      "type": "error"
    },
    {
      "anonymous": false,
      "inputs": [
        {
          "indexed": true,
          "internalType": "address",
          "name": "original",
          "type": "address"
        },
        {
          "indexed": true,
          "internalType": "address",
          "name": "transferable",
          "type": "address"
        }
      ],
      "name": "Allow",
      "type": "event"
    },
    {
      "anonymous": false,
      "inputs": [
        {
          "indexed": true,
          "internalType": "address",
          "name": "owner",
          "type": "address"
        },
        {
          "indexed": true,
          "internalType": "address",
          "name": "spender",
          "type": "address"
        },
        {
          "indexed": false,
          "internalType": "uint256",
          "name": "value",
          "type": "uint256"
        }
      ],
      "name": "Approval",
      "type": "event"
    },
    {
      "anonymous": false,
      "inputs": [
        {
          "indexed": true,
          "internalType": "address",
          "name": "holder",
          "type": "address"
        },
        {
          "indexed": false,
          "internalType": "uint256",
          "name": "amount",
          "type": "uint256"
        }
      ],
      "name": "Claim",
      "type": "event"
    },
    {
      "anonymous": false,
      "inputs": [
        {
          "indexed": true,
          "internalType": "address",
          "name": "to",
          "type": "address"
        },
        {
          "indexed": false,
          "internalType": "uint256",
          "name": "amount",
          "type": "uint256"
        },
        {
          "indexed": false,
          "internalType": "uint256",
          "name": "since",
          "type": "uint256"
        },
        {
          "indexed": false,
          "internalType": "uint256",
          "name": "until",
          "type": "uint256"
        }
      ],
      "name": "Mint",
      "type": "event"
    },
    {
      "anonymous": false,
      "inputs": [
        {
          "indexed": true,
          "internalType": "address",
          "name": "holder",
          "type": "address"
        },
        {
          "indexed": false,
          "internalType": "uint256",
          "name": "amount",
          "type": "uint256"
        }
      ],
      "name": "Renounce",
      "type": "event"
    },
    {
      "anonymous": false,
      "inputs": [
        {
          "indexed": true,
          "internalType": "address",
          "name": "from",
          "type": "address"
        },
        {
          "indexed": true,
          "internalType": "address",
          "name": "to",
          "type": "address"
        },
        {
          "indexed": false,
          "internalType": "uint256",
          "name": "value",
          "type": "uint256"
        }
      ],
      "name": "Transfer",
      "type": "event"
    },
    {
      "inputs": [
        {
          "internalType": "address",
          "name": "original",
          "type": "address"
        },
        {
          "internalType": "address",
          "name": "allowed",
          "type": "address"
        }
      ],
      "name": "allow",
      "outputs": [],
      "stateMutability": "nonpayable",
      "type": "function"
    },
    {
      "inputs": [
        {
          "internalType": "address",
          "name": "owner",
          "type": "address"
        },
        {
          "internalType": "address",
          "name": "spender",
          "type": "address"
        }
      ],
      "name": "allowance",
      "outputs": [
        {
          "internalType": "uint256",
          "name": "",
          "type": "uint256"
        }
      ],
      "stateMutability": "view",
      "type": "function"
    },
    {
      "inputs": [
        {
          "internalType": "uint256",
          "name": "",
          "type": "uint256"
        }
      ],
      "name": "allowedAddresses",
      "outputs": [
        {
          "internalType": "address",
          "name": "",
          "type": "address"
        }
      ],
      "stateMutability": "view",
      "type": "function"
    },
    {
      "inputs": [
        {
          "internalType": "address",
          "name": "spender",
          "type": "address"
        },
        {
          "internalType": "uint256",
          "name": "amount",
          "type": "uint256"
        }
      ],
      "name": "approve",
      "outputs": [
        {
          "internalType": "bool",
          "name": "",
          "type": "bool"
        }
      ],
      "stateMutability": "nonpayable",
      "type": "function"
    },
    {
      "inputs": [
        {
          "internalType": "address",
          "name": "account",
          "type": "address"
        }
      ],
      "name": "balanceOf",
      "outputs": [
        {
          "internalType": "uint256",
          "name": "",
          "type": "uint256"
        }
      ],
      "stateMutability": "view",
      "type": "function"
    },
    {
      "inputs": [
        {
          "internalType": "uint256",
          "name": "amount",
          "type": "uint256"
        }
      ],
      "name": "claim",
      "outputs": [],
      "stateMutability": "nonpayable",
      "type": "function"
    },
    {
      "inputs": [
        {
          "internalType": "address",
          "name": "",
          "type": "address"
        }
      ],
      "name": "claimInfo",
      "outputs": [
        {
          "internalType": "uint256",
          "name": "amount",
          "type": "uint256"
        },
        {
          "internalType": "uint256",
          "name": "claimed",
          "type": "uint256"
        },
        {
          "internalType": "uint64",
          "name": "since",
          "type": "uint64"
        },
        {
          "internalType": "uint64",
          "name": "until",
          "type": "uint64"
        },
        {
          "internalType": "address",
          "name": "from",
          "type": "address"
        }
      ],
      "stateMutability": "view",
      "type": "function"
    },
    {
      "inputs": [],
      "name": "decimals",
      "outputs": [
        {
          "internalType": "uint8",
          "name": "",
          "type": "uint8"
        }
      ],
      "stateMutability": "view",
      "type": "function"
    },
    {
      "inputs": [
        {
          "internalType": "address",
          "name": "spender",
          "type": "address"
        },
        {
          "internalType": "uint256",
          "name": "subtractedValue",
          "type": "uint256"
        }
      ],
      "name": "decreaseAllowance",
      "outputs": [
        {
          "internalType": "bool",
          "name": "",
          "type": "bool"
        }
      ],
      "stateMutability": "nonpayable",
      "type": "function"
    },
    {
      "inputs": [
        {
          "internalType": "address",
          "name": "original",
          "type": "address"
        }
      ],
      "name": "getClaimableOAS",
      "outputs": [
        {
          "internalType": "uint256",
          "name": "",
          "type": "uint256"
        }
      ],
      "stateMutability": "view",
      "type": "function"
    },
    {
      "inputs": [
        {
          "internalType": "address",
          "name": "spender",
          "type": "address"
        },
        {
          "internalType": "uint256",
          "name": "addedValue",
          "type": "uint256"
        }
      ],
      "name": "increaseAllowance",
      "outputs": [
        {
          "internalType": "bool",
          "name": "",
          "type": "bool"
        }
      ],
      "stateMutability": "nonpayable",
      "type": "function"
    },
    {
      "inputs": [
        {
          "internalType": "address",
          "name": "to",
          "type": "address"
        },
        {
          "internalType": "uint64",
          "name": "since",
          "type": "uint64"
        },
        {
          "internalType": "uint64",
          "name": "until",
          "type": "uint64"
        }
      ],
      "name": "mint",
      "outputs": [],
      "stateMutability": "payable",
      "type": "function"
    },
    {
      "inputs": [],
      "name": "name",
      "outputs": [
        {
          "internalType": "string",
          "name": "",
          "type": "string"
        }
      ],
      "stateMutability": "view",
      "type": "function"
    },
    {
      "inputs": [
        {
          "internalType": "address",
          "name": "",
          "type": "address"
        }
      ],
      "name": "originalClaimer",
      "outputs": [
        {
          "internalType": "address",
          "name": "",
          "type": "address"
        }
      ],
      "stateMutability": "view",
      "type": "function"
    },
    {
      "inputs": [
        {
          "internalType": "uint256",
          "name": "amount",
          "type": "uint256"
        }
      ],
      "name": "renounce",
      "outputs": [],
      "stateMutability": "nonpayable",
      "type": "function"
    },
    {
      "inputs": [],
      "name": "symbol",
      "outputs": [
        {
          "internalType": "string",
          "name": "",
          "type": "string"
        }
      ],
      "stateMutability": "view",
      "type": "function"
    },
    {
      "inputs": [],
      "name": "totalSupply",
      "outputs": [
        {
          "internalType": "uint256",
          "name": "",
          "type": "uint256"
        }
      ],
      "stateMutability": "view",
      "type": "function"
    },
    {
      "inputs": [
        {
          "internalType": "address",
          "name": "to",
          "type": "address"
        },
        {
          "internalType": "uint256",
          "name": "amount",
          "type": "uint256"
        }
      ],
      "name": "transfer",
      "outputs": [
        {
          "internalType": "bool",
          "name": "",
          "type": "bool"
        }
      ],
      "stateMutability": "nonpayable",
      "type": "function"
    },
    {
      "inputs": [
        {
          "internalType": "address",
          "name": "from",
          "type": "address"
        },
        {
          "internalType": "address",
          "name": "to",
          "type": "address"
        },
        {
          "internalType": "uint256",
          "name": "amount",
          "type": "uint256"
        }
      ],
      "name": "transferFrom",
      "outputs": [
        {
          "internalType": "bool",
          "name": "",
          "type": "bool"
        }
      ],
      "stateMutability": "nonpayable",
      "type": "function"
    }
  ],
  "bytecode": "0x60806040523480156200001157600080fd5b5060405162001a8938038062001a898339810160408190526200003491620001eb565b604080518082018252600c81526b5374616b61626c65204f415360a01b602080830191825283518085019094526004845263534f415360e01b9084015281519192916200008491600391620000ba565b5080516200009a906004906020840190620000ba565b50508151620000b29150600590602084019062000149565b5050620002fa565b828054620000c890620002bd565b90600052602060002090601f016020900481019282620000ec576000855562000137565b82601f106200010757805160ff191683800117855562000137565b8280016001018555821562000137579182015b82811115620001375782518255916020019190600101906200011a565b5062000145929150620001a1565b5090565b82805482825590600052602060002090810192821562000137579160200282015b828111156200013757825182546001600160a01b0319166001600160a01b039091161782556020909201916001909101906200016a565b5b80821115620001455760008155600101620001a2565b634e487b7160e01b600052604160045260246000fd5b80516001600160a01b0381168114620001e657600080fd5b919050565b60006020808385031215620001ff57600080fd5b82516001600160401b03808211156200021757600080fd5b818501915085601f8301126200022c57600080fd5b815181811115620002415762000241620001b8565b8060051b604051601f19603f83011681018181108582111715620002695762000269620001b8565b6040529182528482019250838101850191888311156200028857600080fd5b938501935b82851015620002b157620002a185620001ce565b845293850193928501926200028d565b98975050505050505050565b600181811c90821680620002d257607f821691505b60208210811415620002f457634e487b7160e01b600052602260045260246000fd5b50919050565b61177f806200030a6000396000f3fe6080604052600436106101145760003560e01c80636dec93f1116100a057806395d89b411161006457806395d89b4114610328578063a457c2d71461033d578063a9059cbb1461035d578063d97830b11461037d578063dd62ed3e1461041a57600080fd5b80636dec93f11461025c57806370a082311461027c578063775ad527146102b25780637de6b1db146102d257806392de7482146102f257600080fd5b8063313ce567116100e7578063313ce567146101b3578063379607f5146101cf57806339509351146101f1578063546cec3e1461021157806364b55bed1461022457600080fd5b806306fdde0314610119578063095ea7b31461014457806318160ddd1461017457806323b872dd14610193575b600080fd5b34801561012557600080fd5b5061012e610460565b60405161013b9190611497565b60405180910390f35b34801561015057600080fd5b5061016461015f366004611508565b6104f2565b604051901515815260200161013b565b34801561018057600080fd5b506002545b60405190815260200161013b565b34801561019f57600080fd5b506101646101ae366004611532565b61050c565b3480156101bf57600080fd5b506040516012815260200161013b565b3480156101db57600080fd5b506101ef6101ea36600461156e565b610530565b005b3480156101fd57600080fd5b5061016461020c366004611508565b61069c565b6101ef61021f36600461159e565b6106db565b34801561023057600080fd5b5061024461023f36600461156e565b61092f565b6040516001600160a01b03909116815260200161013b565b34801561026857600080fd5b506101856102773660046115e1565b610959565b34801561028857600080fd5b506101856102973660046115e1565b6001600160a01b031660009081526020819052604090205490565b3480156102be57600080fd5b506101ef6102cd3660046115fc565b610a57565b3480156102de57600080fd5b506101ef6102ed36600461156e565b610b27565b3480156102fe57600080fd5b5061024461030d3660046115e1565b6007602052600090815260409020546001600160a01b031681565b34801561033457600080fd5b5061012e610c68565b34801561034957600080fd5b50610164610358366004611508565b610c77565b34801561036957600080fd5b50610164610378366004611508565b610d0e565b34801561038957600080fd5b506103dd6103983660046115e1565b6006602052600090815260409020805460018201546002830154600390930154919290916001600160401b0380831692600160401b900416906001600160a01b031685565b6040805195865260208601949094526001600160401b03928316938501939093521660608301526001600160a01b0316608082015260a00161013b565b34801561042657600080fd5b506101856104353660046115fc565b6001600160a01b03918216600090815260016020908152604080832093909416825291909152205490565b60606003805461046f9061162f565b80601f016020809104026020016040519081016040528092919081815260200182805461049b9061162f565b80156104e85780601f106104bd576101008083540402835291602001916104e8565b820191906000526020600020905b8154815290600101906020018083116104cb57829003601f168201915b5050505050905090565b600033610500818585610d1c565b60019150505b92915050565b60003361051a858285610e41565b610525858585610ed3565b506001949350505050565b8061054e57604051637bc90c0560e11b815260040160405180910390fd5b336000818152600760208181526040808420546001600160a01b03168085526006835290842060018101549585529290915290929061058c90610959565b6105969190611680565b9050808311156105b9576040516377dfdf2160e01b815260040160405180910390fd5b828260010160008282546105cd9190611697565b909155506105dd905033846110ac565b604051600090339085908381818185875af1925050503d806000811461061f576040519150601f19603f3d011682016040523d82523d6000602084013e610624565b606091505b5050905080610646576040516312171d8360e31b815260040160405180910390fd5b336000908152600760209081526040918290205491518681526001600160a01b03909216917f47cee97cb7acd717b3c0aa1435d004cd5b3c8c57d70dbceb4e4458bbd60e39d4910160405180910390a250505050565b3360008181526001602090815260408083206001600160a01b038716845290915281205490919061050090829086906106d6908790611697565b610d1c565b6001600160a01b03831615806107505750610750600580548060200260200160405190810160405280929190818152602001828054801561074557602002820191906000526020600020905b81546001600160a01b03168152600190910190602001808311610727575b5050505050846111fe565b1561076e5760405163ac6b05f560e01b815260040160405180910390fd5b6001600160a01b0383811660009081526007602052604090205416156107a757604051630fb356f360e21b815260040160405180910390fd5b42826001600160401b03161115806107d15750806001600160401b0316826001600160401b031610155b156107ef57604051636385801560e11b815260040160405180910390fd5b3461080d57604051637bc90c0560e11b815260040160405180910390fd5b6108178334611264565b6040805160a08101825234808252600060208084018281526001600160401b038089168688019081528882166060880190815233608089019081526001600160a01b038d8116808952600688528b89209a518b55955160018b0155925160028a01805493518616600160401b026fffffffffffffffffffffffffffffffff19909416919095161791909117909255905160039096018054969091166001600160a01b031996871617905560079091529084902080549093168117909255915190917fb4c03061fb5b7fed76389d5af8f2e0ddb09f8c70d1333abbb62582835e10accb916109229190869086909283526001600160401b03918216602084015216604082015260600190565b60405180910390a2505050565b6005818154811061093f57600080fd5b6000918252602090912001546001600160a01b0316905081565b6001600160a01b038082166000908152600660209081526040808320815160a081018352815480825260018301549482019490945260028201546001600160401b0380821694830194909452600160401b900490921660608301526003015490931660808401529091906109d05750600092915050565b80604001516001600160401b03164210156109ee5750600092915050565b600081604001518260600151610a0491906116af565b6001600160401b031682604001516001600160401b031642610a269190611680565b8351610a3291906116d7565b610a3c91906116f6565b8251909150811115610a5057505192915050565b9392505050565b6001600160a01b03828116600090815260066020526040902060030154163314610a945760405163d8d5894f60e01b815260040160405180910390fd5b6001600160a01b038181166000908152600760205260409020541615610acd57604051630fb356f360e21b815260040160405180910390fd5b6001600160a01b0381811660008181526007602052604080822080546001600160a01b0319169487169485179055519192917fdc5d0ac53741544fef2e2ae9b2c8006a9e56f9708377f300d8e825f8d411617d9190a35050565b80610b4557604051637bc90c0560e11b815260040160405180910390fd5b336000908152600760209081526040808320546001600160a01b031683526006909152902060018101548154610b7b9190611680565b821115610b9b576040516377dfdf2160e01b815260040160405180910390fd5b610ba533836110ac565b60038101546040516000916001600160a01b03169084908381818185875af1925050503d8060008114610bf4576040519150601f19603f3d011682016040523d82523d6000602084013e610bf9565b606091505b5050905080610c1b576040516312171d8360e31b815260040160405180910390fd5b336000908152600760209081526040918290205491518581526001600160a01b03909216917f443630e54cc5dd8826c25d7467193a3b7a0a67b4ed73c14fb477e8e7eed3fd489101610922565b60606004805461046f9061162f565b3360008181526001602090815260408083206001600160a01b038716845290915281205490919083811015610d015760405162461bcd60e51b815260206004820152602560248201527f45524332303a2064656372656173656420616c6c6f77616e63652062656c6f77604482015264207a65726f60d81b60648201526084015b60405180910390fd5b6105258286868403610d1c565b600033610500818585610ed3565b6001600160a01b038316610d7e5760405162461bcd60e51b8152602060048201526024808201527f45524332303a20617070726f76652066726f6d20746865207a65726f206164646044820152637265737360e01b6064820152608401610cf8565b6001600160a01b038216610ddf5760405162461bcd60e51b815260206004820152602260248201527f45524332303a20617070726f766520746f20746865207a65726f206164647265604482015261737360f01b6064820152608401610cf8565b6001600160a01b0383811660008181526001602090815260408083209487168084529482529182902085905590518481527f8c5be1e5ebec7d5bd14f71427d1e84f3dd0314c0f7b2291e5b200ac8c7c3b92591015b60405180910390a3505050565b6001600160a01b038381166000908152600160209081526040808320938616835292905220546000198114610ecd5781811015610ec05760405162461bcd60e51b815260206004820152601d60248201527f45524332303a20696e73756666696369656e7420616c6c6f77616e63650000006044820152606401610cf8565b610ecd8484848403610d1c565b50505050565b6001600160a01b038316610f375760405162461bcd60e51b815260206004820152602560248201527f45524332303a207472616e736665722066726f6d20746865207a65726f206164604482015264647265737360d81b6064820152608401610cf8565b6001600160a01b038216610f995760405162461bcd60e51b815260206004820152602360248201527f45524332303a207472616e7366657220746f20746865207a65726f206164647260448201526265737360e81b6064820152608401610cf8565b610fa483838361134f565b6001600160a01b0383166000908152602081905260409020548181101561101c5760405162461bcd60e51b815260206004820152602660248201527f45524332303a207472616e7366657220616d6f756e7420657863656564732062604482015265616c616e636560d01b6064820152608401610cf8565b6001600160a01b03808516600090815260208190526040808220858503905591851681529081208054849290611053908490611697565b92505081905550826001600160a01b0316846001600160a01b03167fddf252ad1be2c89b69c2b068fc378daa952ba7f163c4a11628f55a4df523b3ef8460405161109f91815260200190565b60405180910390a3610ecd565b6001600160a01b03821661110c5760405162461bcd60e51b815260206004820152602160248201527f45524332303a206275726e2066726f6d20746865207a65726f206164647265736044820152607360f81b6064820152608401610cf8565b6111188260008361134f565b6001600160a01b0382166000908152602081905260409020548181101561118c5760405162461bcd60e51b815260206004820152602260248201527f45524332303a206275726e20616d6f756e7420657863656564732062616c616e604482015261636560f01b6064820152608401610cf8565b6001600160a01b03831660009081526020819052604081208383039055600280548492906111bb908490611680565b90915550506040518281526000906001600160a01b038516907fddf252ad1be2c89b69c2b068fc378daa952ba7f163c4a11628f55a4df523b3ef90602001610e34565b6000805b835181101561125a57826001600160a01b031684828151811061122757611227611718565b60200260200101516001600160a01b03161415611248576001915050610506565b806112528161172e565b915050611202565b5060009392505050565b6001600160a01b0382166112ba5760405162461bcd60e51b815260206004820152601f60248201527f45524332303a206d696e7420746f20746865207a65726f2061646472657373006044820152606401610cf8565b6112c66000838361134f565b80600260008282546112d89190611697565b90915550506001600160a01b03821660009081526020819052604081208054839290611305908490611697565b90915550506040518181526001600160a01b038316906000907fddf252ad1be2c89b69c2b068fc378daa952ba7f163c4a11628f55a4df523b3ef9060200160405180910390a35050565b6001600160a01b038316158061136c57506001600160a01b038216155b1561137657505050565b6113d86005805480602002602001604051908101604052809291908181526020018280548015610745576020028201919060005260206000209081546001600160a01b03168152600190910190602001808311610727575050505050846111fe565b806114425750611442600580548060200260200160405190810160405280929190818152602001828054801561143757602002820191906000526020600020905b81546001600160a01b03168152600190910190602001808311611419575b5050505050836111fe565b1561144c57505050565b6001600160a01b0380831660009081526007602052604080822054868416835291205482169116141561147e57505050565b6040516325cdf54f60e21b815260040160405180910390fd5b600060208083528351808285015260005b818110156114c4578581018301518582016040015282016114a8565b818111156114d6576000604083870101525b50601f01601f1916929092016040019392505050565b80356001600160a01b038116811461150357600080fd5b919050565b6000806040838503121561151b57600080fd5b611524836114ec565b946020939093013593505050565b60008060006060848603121561154757600080fd5b611550846114ec565b925061155e602085016114ec565b9150604084013590509250925092565b60006020828403121561158057600080fd5b5035919050565b80356001600160401b038116811461150357600080fd5b6000806000606084860312156115b357600080fd5b6115bc846114ec565b92506115ca60208501611587565b91506115d860408501611587565b90509250925092565b6000602082840312156115f357600080fd5b610a50826114ec565b6000806040838503121561160f57600080fd5b611618836114ec565b9150611626602084016114ec565b90509250929050565b600181811c9082168061164357607f821691505b6020821081141561166457634e487b7160e01b600052602260045260246000fd5b50919050565b634e487b7160e01b600052601160045260246000fd5b6000828210156116925761169261166a565b500390565b600082198211156116aa576116aa61166a565b500190565b60006001600160401b03838116908316818110156116cf576116cf61166a565b039392505050565b60008160001904831182151516156116f1576116f161166a565b500290565b60008261171357634e487b7160e01b600052601260045260246000fd5b500490565b634e487b7160e01b600052603260045260246000fd5b60006000198214156117425761174261166a565b506001019056fea2646970667358221220f21d097e602c55de21338fa3788df67cbc61610d671043339c5528343e0b804364736f6c634300080c0033",
  "linkReferences": {},
  "deployedLinkReferences": {}
}