{
  "_format": "hh-sol-artifact-1",
  "contractName": "Allowlist",
  "sourceName": "contracts/lib/Allowlist.sol",
  "abi": [
    {
      "inputs": [],
      "name": "AlreadyAdded",
      "type": "error"
    },
    {
      "inputs": [],
      "name": "EmptyAddress",
      "type": "error"
    },
    {
      "inputs": [],
      "name": "NotFound",
      "type": "error"
    },
    {
      "anonymous": false,
      "inputs": [
        {
          "indexed": true,
          "internalType": "address",
          "name": "_address",
          "type": "address"
        }
      ],
      "name": "AllowlistAdded",
      "type": "event"
    },
    {
      "anonymous": false,
      "inputs": [
        {
          "indexed": true,
          "internalType": "address",
          "name": "_address",
          "type": "address"
        }
      ],
      "name": "AllowlistRemoved",
      "type": "event"
    },
    {
      "anonymous": false,
      "inputs": [
        {
          "indexed": true,
          "internalType": "address",
          "name": "previousOwner",
          "type": "address"
        },
        {
          "indexed": true,
          "internalType": "address",
          "name": "newOwner",
          "type": "address"
        }
      ],
      "name": "OwnershipTransferred",
      "type": "event"
    },
    {
      "inputs": [
        {
          "internalType": "address",
          "name": "_address",
          "type": "address"
        }
      ],
      "name": "addAddress",
      "outputs": [],
      "stateMutability": "nonpayable",
      "type": "function"
    },
    {
      "inputs": [
        {
          "internalType": "address",
          "name": "_address",
          "type": "address"
        }
      ],
      "name": "containsAddress",
      "outputs": [
        {
          "internalType": "bool",
          "name": "",
          "type": "bool"
        }
      ],
      "stateMutability": "view",
      "type": "function"
    },
    {
      "inputs": [],
      "name": "getAllowlist",
      "outputs": [
        {
          "internalType": "address[]",
          "name": "",
          "type": "address[]"
        }
      ],
      "stateMutability": "view",
      "type": "function"
    },
    {
      "inputs": [],
      "name": "owner",
      "outputs": [
        {
          "internalType": "address",
          "name": "",
          "type": "address"
        }
      ],
      "stateMutability": "view",
      "type": "function"
    },
    {
      "inputs": [
        {
          "internalType": "address",
          "name": "_address",
          "type": "address"
        }
      ],
      "name": "removeAddress",
      "outputs": [],
      "stateMutability": "nonpayable",
      "type": "function"
    },
    {
      "inputs": [],
      "name": "renounceOwnership",
      "outputs": [],
      "stateMutability": "nonpayable",
      "type": "function"
    },
    {
      "inputs": [
        {
          "internalType": "address",
          "name": "newOwner",
          "type": "address"
        }
      ],
      "name": "transferOwnership",
      "outputs": [],
      "stateMutability": "nonpayable",
      "type": "function"
    }
  ],
  "bytecode": "0x608060405234801561001057600080fd5b5061001a3361001f565b61006f565b600080546001600160a01b038381166001600160a01b0319831681178455604051919092169283917f8be0079c531659141344cd1fd0a4f28419497f9722a3daafe3b4186f6b6457e09190a35050565b6106cc8061007e6000396000f3fe608060405234801561001057600080fd5b506004361061007d5760003560e01c8063715018a61161005b578063715018a6146100d25780638da5cb5b146100da578063c5eff3d0146100f5578063f2fde38b1461010a57600080fd5b8063322433e31461008257806338eada1c146100aa5780634ba79dfe146100bf575b600080fd5b610095610090366004610593565b61011d565b60405190151581526020015b60405180910390f35b6100bd6100b8366004610593565b610167565b005b6100bd6100cd366004610593565b61027d565b6100bd610410565b6000546040516001600160a01b0390911681526020016100a1565b6100fd610446565b6040516100a191906105c3565b6100bd610118366004610593565b6104a8565b6000806101326000546001600160a01b031690565b6001600160a01b0316141561014957506001919050565b506001600160a01b0316600090815260026020526040902054151590565b6000546001600160a01b0316331461019a5760405162461bcd60e51b815260040161019190610610565b60405180910390fd5b6001600160a01b0381166101c157604051637138356f60e01b815260040160405180910390fd5b6001600160a01b038116600090815260026020526040902054156101f85760405163f411c32760e01b815260040160405180910390fd5b6001805480820182557fb10e2d527612073b26eecdfd717e6a320cf44b4afac2b0732d9fcbe2b7fa0cf60180546001600160a01b0319166001600160a01b03841690811790915590546000828152600260205260408082209290925590517f28f54e0b69489ad5fd27625e6fcff58faff5da96f8a077d08bb09af25bb41d549190a250565b6000546001600160a01b031633146102a75760405162461bcd60e51b815260040161019190610610565b6001600160a01b0381166000908152600260205260409020546102dd5760405163c5723b5160e01b815260040160405180910390fd5b600180549081111561038c576001600160a01b03821660009081526002602052604081205490600161030f8185610645565b8154811061031f5761031f61066a565b6000918252602090912001546001600160a01b031690508060016103438185610645565b815481106103535761035361066a565b600091825260208083209190910180546001600160a01b0319166001600160a01b03948516179055929091168152600290915260409020555b6001600160a01b03821660009081526002602052604081205560018054806103b6576103b6610680565b600082815260208120820160001990810180546001600160a01b03191690559091019091556040516001600160a01b038416917f458680f79aa9de0ae06344287a3bd8ec6179faa05252e9af81ae734d6b4dc6ba91a25050565b6000546001600160a01b0316331461043a5760405162461bcd60e51b815260040161019190610610565b6104446000610543565b565b6060600180548060200260200160405190810160405280929190818152602001828054801561049e57602002820191906000526020600020905b81546001600160a01b03168152600190910190602001808311610480575b5050505050905090565b6000546001600160a01b031633146104d25760405162461bcd60e51b815260040161019190610610565b6001600160a01b0381166105375760405162461bcd60e51b815260206004820152602660248201527f4f776e61626c653a206e6577206f776e657220697320746865207a65726f206160448201526564647265737360d01b6064820152608401610191565b61054081610543565b50565b600080546001600160a01b038381166001600160a01b0319831681178455604051919092169283917f8be0079c531659141344cd1fd0a4f28419497f9722a3daafe3b4186f6b6457e09190a35050565b6000602082840312156105a557600080fd5b81356001600160a01b03811681146105bc57600080fd5b9392505050565b6020808252825182820181905260009190848201906040850190845b818110156106045783516001600160a01b0316835292840192918401916001016105df565b50909695505050505050565b6020808252818101527f4f776e61626c653a2063616c6c6572206973206e6f7420746865206f776e6572604082015260600190565b60008282101561066557634e487b7160e01b600052601160045260246000fd5b500390565b634e487b7160e01b600052603260045260246000fd5b634e487b7160e01b600052603160045260246000fdfea26469706673582212204782a934a1bb2a607dc99047831112aad64d7e78539e9a3fbc27e9de5b0153d964736f6c634300080c0033",
  "linkReferences": {},
  "deployedLinkReferences": {}
}