{
  "_format": "hh-sol-artifact-1",
  "contractName": "Token",
  "sourceName": "contracts/lib/Token.sol",
  "abi": [
    {
      "inputs": [],
      "name": "SOAS",
      "outputs": [
        {
          "internalType": "contract IERC20",
          "name": "",
          "type": "IERC20"
        }
      ],
      "stateMutability": "view",
      "type": "function"
    },
    {
      "inputs": [],
      "name": "WOAS",
      "outputs": [
        {
          "internalType": "contract IERC20",
          "name": "",
          "type": "IERC20"
        }
      ],
      "stateMutability": "view",
      "type": "function"
    }
  ],
  "bytecode": "0x60ae610039600b82828239805160001a60731461002c57634e487b7160e01b600052600060045260246000fd5b30600052607381538281f3fe7300000000000000000000000000000000000000003014608060405260043610603d5760003560e01c8063155ce9d1146042578063ccaf803814606b575b600080fd5b604f6001602960991b0181565b6040516001600160a01b03909116815260200160405180910390f35b604f6002602960991b018156fea26469706673582212200bcd3c3f9de5ffd8fd1d06b449483386bdbbba0b4bfc92c4a7261739bbf6e1dd64736f6c634300080c0033",
  "linkReferences": {},
  "deployedLinkReferences": {}
}