{
  "_format": "hh-sol-artifact-1",
  "contractName": "NFTBridgeMainchain",
  "sourceName": "contracts/nft-bridge/NFTBridgeMainchain.sol",
  "abi": [
    {
      "anonymous": false,
      "inputs": [
        {
          "indexed": true,
          "internalType": "uint256",
          "name": "depositIndex",
          "type": "uint256"
        },
        {
          "indexed": true,
          "internalType": "address",
          "name": "mainchainERC721",
          "type": "address"
        },
        {
          "indexed": true,
          "internalType": "uint256",
          "name": "tokenId",
          "type": "uint256"
        },
        {
          "indexed": false,
          "internalType": "uint256",
          "name": "sidechainId",
          "type": "uint256"
        },
        {
          "indexed": false,
          "internalType": "address",
          "name": "mainFrom",
          "type": "address"
        },
        {
          "indexed": false,
          "internalType": "address",
          "name": "sideTo",
          "type": "address"
        }
      ],
      "name": "DepositInitiated",
      "type": "event"
    },
    {
      "anonymous": false,
      "inputs": [
        {
          "indexed": true,
          "internalType": "uint256",
          "name": "depositIndex",
          "type": "uint256"
        }
      ],
      "name": "DepositRejected",
      "type": "event"
    },
    {
      "anonymous": false,
      "inputs": [
        {
          "indexed": true,
          "internalType": "address",
          "name": "previousOwner",
          "type": "address"
        },
        {
          "indexed": true,
          "internalType": "address",
          "name": "newOwner",
          "type": "address"
        }
      ],
      "name": "OwnershipTransferred",
      "type": "event"
    },
    {
      "anonymous": false,
      "inputs": [
        {
          "indexed": true,
          "internalType": "uint256",
          "name": "depositIndex",
          "type": "uint256"
        },
        {
          "indexed": true,
          "internalType": "uint256",
          "name": "sidechainId",
          "type": "uint256"
        },
        {
          "indexed": true,
          "internalType": "uint256",
          "name": "withdrawalIndex",
          "type": "uint256"
        },
        {
          "indexed": false,
          "internalType": "address",
          "name": "mainchainERC721",
          "type": "address"
        },
        {
          "indexed": false,
          "internalType": "address",
          "name": "sideFrom",
          "type": "address"
        },
        {
          "indexed": false,
          "internalType": "address",
          "name": "mainTo",
          "type": "address"
        }
      ],
      "name": "WithdrawalFailed",
      "type": "event"
    },
    {
      "anonymous": false,
      "inputs": [
        {
          "indexed": true,
          "internalType": "uint256",
          "name": "depositIndex",
          "type": "uint256"
        },
        {
          "indexed": true,
          "internalType": "uint256",
          "name": "sidechainId",
          "type": "uint256"
        },
        {
          "indexed": true,
          "internalType": "uint256",
          "name": "withdrawalIndex",
          "type": "uint256"
        },
        {
          "indexed": false,
          "internalType": "address",
          "name": "mainchainERC721",
          "type": "address"
        },
        {
          "indexed": false,
          "internalType": "address",
          "name": "sideFrom",
          "type": "address"
        },
        {
          "indexed": false,
          "internalType": "address",
          "name": "mainTo",
          "type": "address"
        }
      ],
      "name": "WithdrawalFinalized",
      "type": "event"
    },
    {
      "inputs": [
        {
          "internalType": "address",
          "name": "mainchainERC721",
          "type": "address"
        },
        {
          "internalType": "uint256",
          "name": "tokenId",
          "type": "uint256"
        },
        {
          "internalType": "uint256",
          "name": "sidechainId",
          "type": "uint256"
        },
        {
          "internalType": "address",
          "name": "sideTo",
          "type": "address"
        }
      ],
      "name": "deposit",
      "outputs": [],
      "stateMutability": "nonpayable",
      "type": "function"
    },
    {
      "inputs": [
        {
          "internalType": "uint256",
          "name": "mainchainId",
          "type": "uint256"
        },
        {
          "internalType": "uint256",
          "name": "depositIndex",
          "type": "uint256"
        },
        {
          "internalType": "uint256",
          "name": "sidechainId",
          "type": "uint256"
        },
        {
          "internalType": "uint256",
          "name": "withdrawalIndex",
          "type": "uint256"
        },
        {
          "internalType": "address",
          "name": "sideFrom",
          "type": "address"
        },
        {
          "internalType": "address",
          "name": "mainTo",
          "type": "address"
        }
      ],
      "name": "finalizeWithdrawal",
      "outputs": [],
      "stateMutability": "nonpayable",
      "type": "function"
    },
    {
      "inputs": [
        {
          "internalType": "uint256",
          "name": "depositIndex",
          "type": "uint256"
        }
      ],
      "name": "getDepositInfo",
      "outputs": [
        {
          "components": [
            {
              "internalType": "address",
              "name": "mainchainERC721",
              "type": "address"
            },
            {
              "internalType": "uint256",
              "name": "tokenId",
              "type": "uint256"
            },
            {
              "internalType": "address",
              "name": "mainFrom",
              "type": "address"
            },
            {
              "internalType": "address",
              "name": "mainTo",
              "type": "address"
            }
          ],
          "internalType": "struct INFTBridgeMainchain.DepositInfo",
          "name": "",
          "type": "tuple"
        }
      ],
      "stateMutability": "view",
      "type": "function"
    },
    {
      "inputs": [],
      "name": "owner",
      "outputs": [
        {
          "internalType": "address",
          "name": "",
          "type": "address"
        }
      ],
      "stateMutability": "view",
      "type": "function"
    },
    {
      "inputs": [
        {
          "internalType": "uint256",
          "name": "mainchainId",
          "type": "uint256"
        },
        {
          "internalType": "uint256",
          "name": "depositIndex",
          "type": "uint256"
        }
      ],
      "name": "rejectDeposit",
      "outputs": [],
      "stateMutability": "nonpayable",
      "type": "function"
    },
    {
      "inputs": [],
      "name": "renounceOwnership",
      "outputs": [],
      "stateMutability": "nonpayable",
      "type": "function"
    },
    {
      "inputs": [
        {
          "internalType": "uint256",
          "name": "mainchainId",
          "type": "uint256"
        },
        {
          "internalType": "address",
          "name": "newRelayer",
          "type": "address"
        }
      ],
      "name": "transferMainchainRelayer",
      "outputs": [],
      "stateMutability": "nonpayable",
      "type": "function"
    },
    {
      "inputs": [
        {
          "internalType": "address",
          "name": "newOwner",
          "type": "address"
        }
      ],
      "name": "transferOwnership",
      "outputs": [],
      "stateMutability": "nonpayable",
      "type": "function"
    }
  ],
  "bytecode": "0x608060405234801561001057600080fd5b5061001a3361001f565b61006f565b600080546001600160a01b038381166001600160a01b0319831681178455604051919092169283917f8be0079c531659141344cd1fd0a4f28419497f9722a3daafe3b4186f6b6457e09190a35050565b610bcf8061007e6000396000f3fe608060405234801561001057600080fd5b50600436106100885760003560e01c80638da5cb5b1161005b5780638da5cb5b1461011a5780638f67e4e214610135578063d09f69e814610148578063f2fde38b1461015b57600080fd5b80633c9dfb701461008d5780635328c2bf146100a2578063715018a6146100ff5780638b6099db14610107575b600080fd5b6100a061009b3660046109d2565b61016e565b005b6100b56100b0366004610a2a565b6103c8565b6040516100f6919081516001600160a01b03908116825260208084015190830152604080840151821690830152606092830151169181019190915260800190565b60405180910390f35b6100a0610457565b6100a0610115366004610a43565b610493565b6000546040516001600160a01b0390911681526020016100f6565b6100a0610143366004610a89565b6106b2565b6100a0610156366004610ab5565b610708565b6100a0610169366004610ad7565b610883565b6000546001600160a01b031633146101a15760405162461bcd60e51b815260040161019890610af9565b60405180910390fd5b4686146101c05760405162461bcd60e51b815260040161019890610b2e565b6001600160a01b0381166102165760405162461bcd60e51b815260206004820152601760248201527f6d61696e546f206973207a65726f20616464726573732e0000000000000000006044820152606401610198565b60006001868154811061022b5761022b610b5e565b6000918252602090912060049091020160038101549091506001600160a01b03161561028c5760405162461bcd60e51b815260206004820152601060248201526f616c726561647920776974686472617760801b6044820152606401610198565b80546001820154604051632142170760e11b81523060048201526001600160a01b03858116602483015260448201929092529116906342842e0e90606401600060405180830381600087803b1580156102e457600080fd5b505af19250505080156102f5575060015b610353578054604080516001600160a01b0392831681528583166020820152918416908201528490869088907fff82188c7a604e133377334d10ea0202a3253d32cd7e453e3ef1908e8d870d5b9060600160405180910390a46103bf565b6003810180546001600160a01b0319166001600160a01b0384811691821790925582546040805191841682529286166020820152918201528490869088907fed4ea6f5c215136f3a31e7148d0657029d9255811234dd845ccfcc4a7088fd179060600160405180910390a45b50505050505050565b604080516080810182526000808252602082018190529181018290526060810191909152600182815481106103ff576103ff610b5e565b600091825260209182902060408051608081018252600490930290910180546001600160a01b039081168452600182015494840194909452600281015484169183019190915260030154909116606082015292915050565b60405162461bcd60e51b81526020600482015260116024820152702737ba103932b737bab731b2b0b136329760791b6044820152606401610198565b6001600160a01b0381166104e95760405162461bcd60e51b815260206004820152601760248201527f73696465546f206973207a65726f20616464726573732e0000000000000000006044820152606401610198565b6040516323b872dd60e01b8152336004820152306024820152604481018490526001600160a01b038516906323b872dd90606401600060405180830381600087803b15801561053757600080fd5b505af115801561054b573d6000803e3d6000fd5b5050604080516080810182526001600160a01b03808916808352602083018981523394840194855260006060850181815260018054808201825592819052955160049092027fb10e2d527612073b26eecdfd717e6a320cf44b4afac2b0732d9fcbe2b7fa0cf6810180549387166001600160a01b031994851617905592517fb10e2d527612073b26eecdfd717e6a320cf44b4afac2b0732d9fcbe2b7fa0cf784015595517fb10e2d527612073b26eecdfd717e6a320cf44b4afac2b0732d9fcbe2b7fa0cf88301805491861691831691909117905594517fb10e2d527612073b26eecdfd717e6a320cf44b4afac2b0732d9fcbe2b7fa0cf99091018054919093169416939093179055805487945091925061066591610b74565b604080518681523360208201526001600160a01b0386168183015290517ff76ae3f7ac9053252be27bc4dd25e65130b93fbe671840bcc0b4bab49c249af69181900360600190a450505050565b6000546001600160a01b031633146106dc5760405162461bcd60e51b815260040161019890610af9565b4682146106fb5760405162461bcd60e51b815260040161019890610b2e565b610704816108cb565b5050565b6000546001600160a01b031633146107325760405162461bcd60e51b815260040161019890610af9565b4682146107515760405162461bcd60e51b815260040161019890610b2e565b60006001828154811061076657610766610b5e565b6000918252602090912060049091020160038101549091506001600160a01b0316156107c75760405162461bcd60e51b815260206004820152601060248201526f185b1c9958591e481c995a9958dd195960821b6044820152606401610198565b60028101546003820180546001600160a01b0319166001600160a01b03928316908117909155825460018401546040516323b872dd60e01b815230600482015260248101939093526044830152909116906323b872dd90606401600060405180830381600087803b15801561083b57600080fd5b505af115801561084f573d6000803e3d6000fd5b50506040518492507f8480a0dfd9eb0adad53b880c4d432e40c89b386da85e35f3bb6a83ef44bd3aa89150600090a2505050565b60405162461bcd60e51b815260206004820152601760248201527f5472616e736665722069732070726f686962697465642e0000000000000000006044820152606401610198565b6000546001600160a01b031633146108f55760405162461bcd60e51b815260040161019890610af9565b6001600160a01b03811661095a5760405162461bcd60e51b815260206004820152602660248201527f4f776e61626c653a206e6577206f776e657220697320746865207a65726f206160448201526564647265737360d01b6064820152608401610198565b61096381610966565b50565b600080546001600160a01b038381166001600160a01b0319831681178455604051919092169283917f8be0079c531659141344cd1fd0a4f28419497f9722a3daafe3b4186f6b6457e09190a35050565b80356001600160a01b03811681146109cd57600080fd5b919050565b60008060008060008060c087890312156109eb57600080fd5b86359550602087013594506040870135935060608701359250610a10608088016109b6565b9150610a1e60a088016109b6565b90509295509295509295565b600060208284031215610a3c57600080fd5b5035919050565b60008060008060808587031215610a5957600080fd5b610a62856109b6565b93506020850135925060408501359150610a7e606086016109b6565b905092959194509250565b60008060408385031215610a9c57600080fd5b82359150610aac602084016109b6565b90509250929050565b60008060408385031215610ac857600080fd5b50508035926020909101359150565b600060208284031215610ae957600080fd5b610af2826109b6565b9392505050565b6020808252818101527f4f776e61626c653a2063616c6c6572206973206e6f7420746865206f776e6572604082015260600190565b60208082526016908201527524b73b30b634b21036b0b4b71031b430b4b71034b21760511b604082015260600190565b634e487b7160e01b600052603260045260246000fd5b600082821015610b9457634e487b7160e01b600052601160045260246000fd5b50039056fea26469706673582212202b2c397e94aca075a970504316f0d793df53ebc1b6eeacbb7c21770b18ff690d64736f6c634300080c0033",
  "linkReferences": {},
  "deployedLinkReferences": {}
}